:020000021000EC
:10000000008000205300000051000000510000005B
:10001000510000005100000051000000510000009C
:10002000510000005100000051000000510000008C
:10003000510000005100000051000000510000007C
:10004000510000005100000051000000510000006C
:10005000FEE700F003F801DFFEE7000005210A4A91
:100060000520936882B00B439360FF231B02D3608B
:10007000FA2101238900D36010610191019B013BAA
:0C0080000193002BFAD1F7E700100040BC
:04008C000010004020
:0400000310000000E9
:00000001FF
