:020000021000EC
:10000000008000205300000051000000510000005B
:10001000510000005100000051000000510000009C
:10002000510000005100000051000000510000008C
:10003000510000005100000051000000510000007C
:10004000510000005100000051000000510000006C
:10005000FEE700F003F801DFFEE700000922074B8E
:10006000074908489A6082B0D9601A6101900199E5
:10007000013901910029FAD1F7E7C046001000408C
:0800800001FF00001B0300005A
:040088000010004024
:0400000310000000E9
:00000001FF
