:020000021000EC
:10000000008000205300000051000000510000005B
:10001000510000005100000051000000510000009C
:10002000510000005100000051000000510000008C
:10003000510000005100000051000000510000007C
:10004000510000005100000051000000510000006C
:10005000FEE700F003F801DFFEE7000009210D4A8A
:100060000920936882B00B439360536808391B0CD6
:100070001B04536053680B43FA2153608900536893
:10008000434053600191019B013B0193002BFAD146
:08009000F5E7C0460010004036
:040098000010004014
:0400000310000000E9
:00000001FF
